:1000000014C1000042C1000040C100003EC1000018
:100010003CC100003AC1000038C1000036C10000F8
:1000200034C1000032C1000030C100002EC1000008
:100030002CC100002AC1000028C1000026C1000018
:1000400024C1000022C1000020C100001EC1000028
:100050001CC100001AC1000018C10000C9C5000081
:1000600014C100008FC5000064C500000EC100006F
:100070000CC100000AC1000008C1000006C1000058
:1000800004C1000002C1000000C10000FEC0000069
:10009000FCC00000FAC00000F8C00000F6C000007C
:1000A000F4C00000F2C00000F0C00000EEC000008C
:1000B000ECC00000EAC00000E8C00000E6C000009C
:1000C000E4C00000E2C00000E0C00000DEC00000AC
:1000D000DCC00000DAC00000D8C00000D6C00000BC
:1000E000D4C0000083028602750279027F02BD023D
:1000F0008A028E02940298029C02A202A602AA021E
:10010000BD02B002B402B8020000210024002700A2
:100110002A002D0030003300010100000401070116
:100120000A0100002200250028002B002E003100CB
:10013000340002010000050108010B0100000A0B58
:1001400002090C0D0E080703040100000000000066
:10015000000000000000000000000000000000009F
:10016000000000000000000012111000000000005C
:10017000000000000000000000000000000000007F
:100180000000000020002300260029002C002F0082
:100190003200000100000301060109010505050503
:1001A000070508080808020202020A0A08080404EF
:1001B000040401010101010101010303030303031D
:1001C0000303040707070C0C0C0C0C0C0C0C0202AC
:1001D000020206060606060606060B0B0B0B0B0BA9
:1001E0000B0B010210202008081020401020408036
:1001F00002010201080402010102040810204080EB
:100200008040201008040201800402018040201078
:1002100008040201080402010102040810204080C1
:100220000102040810204080870611241FBECFEF72
:10023000D1E2DEBFCDBF00E00CBF23E0ACECB2E00A
:1002400001C01D92AC39B207E1F712E0A0E0B2E0C4
:10025000EEEBFBE100E00BBF02C007900D92AC3C5F
:10026000B107D9F711E0C5E1D1E000E006C0219760
:100270000109802FFE010E94EE0BC431D10780E0FE
:100280000807A9F78ED50C94DD0DBACECF92DF9278
:10029000EF92FF920F931F93CF93DF936C017A013C
:1002A0008B01C0E0D0E0CE15DF0589F0D8016D915B
:1002B0008D01D601ED91FC910190F081E02DC601F8
:1002C0001995892B11F47E0102C02196ECCFC7014C
:1002D000DF91CF911F910F91FF90EF90DF90CF9022
:1002E0000895FC01918D828D981761F0828DDF0158
:1002F000A80FB11D5D968C91928D9F5F9F73928F19
:1003000090E008958FEF9FEF0895FC01918D828D0D
:10031000981731F0828DE80FF11D858D90E00895DA
:100320008FEF9FEF0895FC01918D228D892F90E032
:10033000805C9F4F821B91098F739927089587EEE8
:1003400092E0F1DF21E0892B09F420E0822F08956B
:10035000FC01848DDF01A80FB11DA35ABF4F2C9162
:10036000848D90E001968F739927848FA689B78931
:100370002C93A089B1898C9180648C93938D848D0A
:10038000981306C00288F389E02D80818F7D8083D9
:100390000895EF92FF920F931F93CF93DF93EC0199
:1003A00081E0888F9B8D8C8D981305C0E889F98931
:1003B000808185FD23C0F62E0B8D10E00F5F1F4F4F
:1003C0000F731127E02E8C8DE8120BC00FB607FCBF
:1003D000FACFE889F989808185FFF5CFCE01B8DFB2
:1003E000F2CF8B8DFE01E80FF11DE35AFF4FF08233
:1003F0000B8FEA89FB898081806207C0EE89FF89C3
:100400006083E889F98980818064808381E090E05D
:10041000DF91CF911F910F91FF90EF900895CF93AF
:10042000DF93EC01888D8823C1F0EA89FB89808104
:1004300085FD05C0A889B9898C9186FD0EC00FB6CF
:1004400007FCF5CF808185FFF2CFA889B9898C910F
:1004500085FFEDCFCE017CDFE8CFDF91CF9108950E
:1004600080E090E0892B19F06ADF811125C080E0DF
:1004700090E0892B41F080E090E0892B21F00E94F0
:10048000000081111CC080E090E0892B41F080E0E9
:1004900090E0892B21F00E940000811113C080E0C0
:1004A00090E0892BA1F080E090E0892B81F00E9400
:1004B000000081110AC008950E940000D8CF0E9458
:1004C0000000E1CF0E940000EACF0C9400000895E4
:1004D00090E0FC013197E231F10508F04EC0882729
:1004E000EE58FF4F8F4F0C94EE0B809180008F776A
:1004F00003C0809180008F7D80938000089580915B
:100500008000877FF9CF84B58F7702C084B58F7D57
:1005100084BD08958091B0008F7703C08091B000B2
:100520008F7D8093B0000895809190008F7707C0F1
:10053000809190008F7D03C080919000877F809391
:10054000900008958091A0008F7707C08091A0004F
:100550008F7D03C08091A000877F8093A0000895C5
:10056000809120018F7707C0809120018F7D03C08B
:1005700080912001877F8093200108951F93CF935E
:10058000DF93282F30E0F901E45CFE4F8491F901FC
:10059000EE51FE4FD491F901E456FE4FC491CC23A5
:1005A000C1F0162F811194DFEC2FF0E0EE0FFF1F4A
:1005B000EE5DFE4FA591B4918FB7F894111105C06F
:1005C0009C91ED2FE095E92302C0EC91ED2BEC938B
:1005D0008FBFDF91CF911F910895CF93DF9390E06C
:1005E000FC01EE51FE4F2491FC01E456FE4F849134
:1005F000882361F190E0880F991FFC01E85FFE4FAE
:10060000C591D491FC01EE5DFE4FA591B4916111AD
:1006100009C09FB7F8948881209582238883EC9144
:100620002E230BC0623061F49FB7F8943881822F7B
:10063000809583238883EC912E2B2C939FBF06C03B
:100640008FB7F894E8812E2B28838FBFDF91CF914D
:1006500008953FB7F8948091D1029091D202A09171
:10066000D302B091D40226B5A89B05C02F3F19F044
:100670000196A11DB11D3FBFBA2FA92F982F882722
:10068000820F911DA11DB11DBC01CD0142E0660F7D
:10069000771F881F991F4A95D1F708958F929F92CF
:1006A000AF92BF92CF92DF92EF92FF926B017C01EB
:1006B000D0DF4B015C01C114D104E104F104E9F085
:1006C000C8DFDC01CB0188199909AA09BB09883E5A
:1006D0009340A105B10578F321E0C21AD108E108E1
:1006E000F10888EE880E83E0981EA11CB11CC1148D
:1006F000D104E104F10421F7DECFFF90EF90DF9009
:10070000CF90BF90AF909F908F900895CF93DF933D
:10071000EC0160E08E8132DF61E08E812FDF60E0EE
:100720008E812CDF8BE891E00197F1F7DF91CF917B
:100730000895CF92DF92EF92FF920F931F93CF9382
:10074000DF937C016C0187E0C80ED11CC0E0D0E0D3
:10075000062F10E0B8010C2E02C0759567950A941B
:10076000E2F76170F60181916F0108DF2196C430D4
:10077000D10581F7C701DF91CF911F910F91FF90B4
:10078000EF90DF90CF90C2CFCF92DF92EF92FF92A7
:100790000F931F93CF93DF93EC01F62E642F8C8180
:1007A000EDDE8D818F3F11F060E0E8DE8F850F2D4B
:1007B00010E084FF23C06E0187E0C80ED11CE12C3D
:1007C000F12CB8010E2C02C0759567950A94E2F7DA
:1007D0006170F60181916F01D1DEFFEFEF1AFF0A20
:1007E00088E0E816F10469F7CE01DF91CF911F91FF
:1007F0000F91FF90EF90DF90CF9088CFB80184E009
:10080000759567958A95E1F7CE0193DF6F2DCE013F
:10081000DF91CF911F910F91FF90EF90DF90CF90DC
:1008200088CF41E0B1DF81E090E0089540E0ACCFB7
:10083000643008F063E090919703691710F06FEF50
:10084000690FE62FF0E0EC57FC4F9489682F690F91
:10085000606884E893E0EACF61E0E8DF8BE39FE142
:100860000197F1F70895EF92FF920F931F93CF93A3
:10087000DF93EC01423018F08F8588608F874B8BB7
:100880001C8A80E48D8B6E8B70E0605C7F4F6F8B79
:1008900061E08C81A2DE8D818F3F11F061E09DDEF1
:1008A00061E08E819ADE7E0187E0E80EF11C00E0B7
:1008B00010E08F8584FD03C084E090E002C088E0F2
:1008C00090E00817190744F461E0F70181917F0176
:1008D00084DE0F5F1F4FEDCF8BE39DE00197F1F7B3
:1008E00060E08C814BDE60E08E8148DE8D818F3F41
:1008F00011F060E043DE6F8564FD19C063E0CE0156
:1009000018DF0BE416E4C8010197F1F763E0CE01AC
:1009100010DFC8010197F1F763E0CE010ADF83E53C
:1009200092E00197F1F762E0CE0103DF13C060624D
:10093000CE017CDF8BE496E40197F1F76F8560626E
:10094000CE0174DF83E592E00197F1F76F85606275
:10095000CE016CDF6F856062CE0168DF84E0888B3A
:100960006CE0CE0163DFCE0177DF82E0898B66E049
:10097000CE01DF91CF911F910F91FF90EF9056CF55
:100980000F931F9390E0FC01EE51FE4F6491FC0128
:10099000E456FE4FE491F0E0EE0FFF1FEE57FE4FDE
:1009A0008591949100E412E42FE030E040E06AD1B8
:1009B000611571058105910549F0DC01CB010196B6
:1009C000A11DB11DBC01CD019F7003C060E070E0AE
:1009D000CB011F910F9108950E94820D6115710541
:1009E00079F0FB0101900020E9F73197AF01461B38
:1009F000570BDC01ED91FC910280F381E02D1994FD
:100A000080E090E008950F931F93CF93DF93EC0164
:100A10006FE872E0E3DF8C016EE172E0CE01DEDFB1
:100A2000800F911FDF91CF911F910F9108954F92E9
:100A30005F926F927F928F929F92AF92BF92CF926E
:100A4000DF92EF92FF920F931F93CF93DF93CDB777
:100A5000DEB7A1970FB6F894DEBF0FBECDBF8C01F5
:100A60006B01770FEE08FF08F7FE2EC0DC01ED9159
:100A7000FC910190F081E02D6DE219955C01222737
:100A80003327A9012C193D094E095F0919A2FE015E
:100A9000B1967F019AE0492E512C612C712CCA012C
:100AA000B901A30192010E94AC0D605DD7016E9364
:100AB0007D01211531054105510589F7BD01C801A9
:100AC0008DDF8A0D9B1D1DC0A701960119A2FE0195
:100AD000B1967F018AE0882E912CA12CB12CCA01FD
:100AE000B901A50194010E94AC0D605DD7016E9320
:100AF0007D01211531054105510589F7BD01C80169
:100B00006DDFA1960FB6F894DEBF0FBECDBFDF91AB
:100B1000CF911F910F91FF90EF90DF90CF90BF90FA
:100B2000AF909F908F907F906F905F904F900895BF
:100B300055CF1F920F920FB60F9211240BB60F9242
:100B40002F933F934F935F936F937F938F939F93D5
:100B5000AF93BF93EF93FF9387EE92E0F9DBFF91A2
:100B6000EF91BF91AF919F918F917F916F915F9125
:100B70004F913F912F910F900BBE0F900FBE0F9092
:100B80001F9018951F920F920FB60F9211240BB65B
:100B90000F922F938F939F93EF93FF93E091F70220
:100BA000F091F8028081E091FD02F091FE0282FD59
:100BB00012C09081809100038F5F8F732091010399
:100BC000821751F0E0910003F0E0E951FD4F958F5D
:100BD0008093000301C08081FF91EF919F918F91DD
:100BE0002F910F900BBE0F900FBE0F901F90189576
:100BF0001F920F920FB60F9211242F933F938F9352
:100C00009F93AF93BF938091CD029091CE02A0911C
:100C1000CF02B091D0023091CC0223E0230F2D37C8
:100C200020F40196A11DB11D05C026E8230F0296F0
:100C3000A11DB11D2093CC028093CD029093CE02D2
:100C4000A093CF02B093D0028091D1029091D202B2
:100C5000A091D302B091D4020196A11DB11D809341
:100C6000D1029093D202A093D302B093D402BF9149
:100C7000AF919F918F913F912F910F900FBE0F9049
:100C80001F901895CF92DF92EF92FF920F931F93D0
:100C9000E82FF92F05C0015011092109310961F12F
:100CA000908196239417B9F305C0015011092109C9
:100CB000310911F1908196239413F7CFC12CD12CD7
:100CC000E12CF12C0AC08FEFC81AD80AE80AF80AFA
:100CD0000C151D052E053F0579F0808186238417AC
:100CE00091F36C2D7D2D8E2D9F2D1F910F91FF90D7
:100CF000EF90DF90CF90089560E070E080E090E0AA
:100D00001F910F91FF90EF90DF90CF900895E7EE45
:100D1000F2E01382128288EE93E0A0E0B0E08483D8
:100D20009583A683B7838AE092E09183808385ECE4
:100D300090E09587848784EC90E09787868780ECA5
:100D400090E0918B808B81EC90E0938B828B82EC96
:100D500090E0958B848B86EC90E0978B868B118E40
:100D6000128E138E148EE4E8F3E0138212828AE16D
:100D700092E0918380838BE0848315828CE086836C
:100D800087E0878388E0808789E081878AE082879F
:100D90001386148615861686178641E060E1CF011A
:100DA00062CD789484B5826084BD84B5816084BD51
:100DB00085B5826085BD85B5816085BD80916E00F9
:100DC000816080936E00109281008091810082602A
:100DD0008093810080918100816080938100809167
:100DE00080008160809380008091B1008460809356
:100DF000B1008091B00081608093B000809191003B
:100E00008260809391008091910081608093910035
:100E1000809190008160809390008091A100826019
:100E20008093A1008091A10081608093A1008091B6
:100E3000A00081608093A000809121018260809356
:100E40002101809121018160809321018091200105
:100E500081608093200180917A00846080937A0081
:100E600080917A00826080937A0080917A0081601C
:100E700080937A0080917A00806880937A00109243
:100E8000C100E091F702F091F80282E08083E091E6
:100E9000F302F091F4021082E091F502F091F60273
:100EA00080E180831092FF02E091FB02F091FC024E
:100EB00086E08083E091F902F091FA0280818061FE
:100EC0008083E091F902F091FA028081886080834A
:100ED000E091F902F091FA02808180688083E091CC
:100EE000F902F091FA0280818F7D808361E086E2D1
:100EF00074DB61E087E271DB60E086E06EDB60E07E
:100F000085E06BDB61E082E068DB61E083E065DB6C
:100F100060E084E062DB84E893E09EDC44E064E12E
:100F200084E893E0A0DC61E272E084E893E000DE14
:100F30006AE070E080E090E0B1DB61E084E078DCC2
:100F400065E372E084E893E0F3DD6AE070E080E05E
:100F500090E0A4DB62E080E06BDC62E472E084E8B5
:100F600093E0E6DD6AE070E080E090E097DB63E02C
:100F700083E05EDC67E572E084E893E0D9DD68EE4B
:100F800073E080E090E08ADB62E084E893E04EDC8E
:100F90008BE39FE10197F1F7B2E46B2EB1E07B2E7A
:100FA000C8EEEC2EC1E0FC2ED2EACD2ED1E0DD2E33
:100FB00001E010E080E4582E95EB892E93E0992E05
:100FC000A12CB12CCFEFD0E0F3018491F701449034
:100FD000F6013490332099F081117ADAE32DF0E0B4
:100FE000EE0FFF1FEE57FE4FA591B4918C91482252
:100FF00031E020E009F430E0832F922F02C080E03E
:1010000090E09093E6028093E502019709F0D2C345
:1010100061E086E2B3DA61E086E0B0DA84E893E08A
:101020001BDC80917B00877F80937B0050927C004B
:1010300080917A00806480937A0080917A0086FDA6
:10104000FCCF209178008091790030E0382B3093EC
:10105000E4022093E302C901330FAA0BBB0B9C01EE
:10106000AD012A54310941095109A4E1B0E06AD522
:10107000A50194014BD53093E2022093E10260E098
:1010800082E07CDA60E083E079DA84E079DC7093F6
:10109000E0026093DF0280E090E0A6D420E030E040
:1010A00048EC53E408D420E030E040E85FE39ED30E
:1010B0006AD4CE01861B970B9093DE028093DD02EB
:1010C00061E082E05BDA61E083E058DA84E058DCDA
:1010D0007093E0026093DF0280E090E085D420E02E
:1010E00030E048EC53E4E7D320E030E040E85FE351
:1010F0007DD349D4CE01861B970B9093DC0280935D
:10110000DB0260E082E03ADA61E083E037DA84E033
:1011100037DC7093E0026093DF0280E090E064D4FB
:1011200020E030E048EC53E4C6D320E030E040E873
:101130005FE35CD328D49E01261B370B3093DA0281
:101140002093D9028091DB029091DC024091DD0274
:101150005091DE02841795079CF42817390784F410
:10116000D093DE02C093DD0297FD01969595879599
:101170009093DC028093DB021092DA021092D90283
:101180008091D9029091DA022091DD023091DE0245
:1011900082179307BCF42091DB023091DC02281700
:1011A000390784F4D093DE02C093DD0297FD0196E7
:1011B000959587959093DA028093D9021092DC027C
:1011C0001092DB028091DD029091DE022091DB0221
:1011D0003091DC0282179307BCF42091D902309140
:1011E000DA022817390784F4D093DC02C093DB02BB
:1011F00097FD0196959587959093DE028093DD0289
:101200001092DA021092D9028091D9029091DA02FA
:101210002091DB023091DC0282179307BCF420910D
:10122000DD023091DE022817390784F4D093DC0206
:10123000C093DB0297FD0196959587959093DA020E
:101240008093D9021092DE021092DD028091DD02BD
:101250009091DE022091D9023091DA028217930731
:10126000BCF42091DB023091DC022817390784F4AA
:10127000D093DA02C093D90297FD01969595879590
:101280009093DE028093DD021092DC021092DB026A
:101290008091DB029091DC022091D9023091DA0238
:1012A00082179307BCF42091DD023091DE022817EB
:1012B000390784F4D093DA02C093D90297FD0196DE
:1012C000959587959093DC028093DB021092DE0265
:1012D0001092DD028091DB029091DC029C01215092
:1012E00031092E37310508F02EC12091DD023091F1
:1012F000DE02121613060CF492C08B3791050CF423
:101300008EC0609100027091010287EE92E08FDB47
:101310006FE872E087EE92E00BDC66E672E087EE43
:1013200092E006DC6FE872E087EE92E001DC60910B
:10133000E1027091E20287EE92E079DB6FE872E001
:1013400087EE92E0F5DB61E070E087EE92E06FDB24
:101350006FE872E087EE92E0EBDB6091E102709162
:10136000E2027093D8026093D70287EE92E05FDBCF
:101370006FE872E087EE92E0DBDB84E893E06CDA02
:1013800060E080E055DA6CE672E084E893E0D0DB60
:10139000609100027091010284E893E048DB6FE8FD
:1013A00072E084E893E0C4DB61E080E041DA68E762
:1013B00072E084E893E0BCDB62E080E039DA61E867
:1013C00072E084E893E0B4DB6091E1027091E202A4
:1013D00084E893E02CDB84E893E015DB63E080E0B5
:1013E00027DA68E872E084E893E0A2DB6091D70234
:1013F0007091D80284E893E01ADB84E893E003DB81
:101400001093D6020093D50261E087E2B7D864EF6B
:1014100071E080E090E042D960E087E2AFD880914F
:10142000D9029091DA02181619060CF48CC060915A
:1014300000027091010287EE92E0F9DA6FE872E043
:1014400087EE92E075DB63E972E087EE92E070DB95
:101450006FE872E087EE92E06BDB6091E1027091E1
:10146000E20287EE92E0E3DA6FE872E087EE92E064
:101470005FDB61E070E087EE92E0D9DA6FE872E05E
:1014800087EE92E055DB6091E1027091E202709389
:10149000D8026093D70287EE92E0C9DA87EE92E035
:1014A000B2DA84E893E0D8D960E080E0C1D96CE694
:1014B00072E084E893E03CDB6091000270910102ED
:1014C00084E893E0B4DA6FE872E084E893E030DB1C
:1014D00061E080E0ADD96BE972E084E893E028DB5D
:1014E00062E080E0A5D961E872E084E893E020DB67
:1014F0006091E1027091E20284E893E098DA84E876
:1015000093E081DA63E080E093D968E872E084E8F0
:1015100093E00EDB6091D7027091D80284E893E0EB
:1015200086DA84E893E06FDA1093D6020093D5024E
:1015300061E087E223D864EF71E080E090E0AED80C
:1015400060E087E21BD88091D9029091DA0201977E
:101550008E37910508F08EC06091000270910102F3
:1015600087EE92E064DA6FE872E087EE92E0E0DA0C
:1015700066EA72E087EE92E0DBDA6FE872E087EE0F
:1015800092E0D6DA6091E1027091E20287EE92E099
:101590004EDA6FE872E087EE92E0CADA61E070E05E
:1015A00087EE92E044DA6FE872E087EE92E0C0DA0C
:1015B0006091E1027091E2027093D8026093D702C9
:1015C00087EE92E034DA87EE92E01DDA84E893E069
:1015D00043D960E080E02CD96CE672E084E893E0C7
:1015E000A7DA609100027091010284E893E01FDAAB
:1015F0006FE872E084E893E09BDA61E080E018D95C
:101600006FEA72E084E893E093DA62E080E010D958
:1016100061E872E084E893E08BDA6091E102709116
:10162000E20284E893E003DA84E893E0ECD963E033
:1016300080E0FED868E872E084E893E079DA6091AF
:10164000D7027091D80284E893E0F1D984E893E05E
:10165000DAD91093D6020093D50261E087E20E94A6
:10166000BE0264EF71E080E090E018D860E087E2AD
:101670000E94BE028091DD029091DE0201978E37BA
:10168000910508F091C0609100027091010287EE0F
:1016900092E0CDD96FE872E087EE92E049DA6BEB29
:1016A00072E087EE92E044DA6FE872E087EE92E053
:1016B0003FDA6091E1027091E20287EE92E0B7D9E1
:1016C0006FE872E087EE92E033DA62E070E087EE76
:1016D00092E0ADD96FE872E087EE92E029DA60918E
:1016E000E1027091E202660F771F7093D802609357
:1016F000D70287EE92E09BD987EE92E084D984E806
:1017000093E0AAD860E080E093D86CE672E084E8C9
:1017100093E00EDA609100027091010284E893E098
:1017200086D96FE872E084E893E002DA61E080E055
:101730007FD862EC72E084E893E0FAD962E080E05E
:1017400077D861E872E084E893E0F2D96091E10231
:101750007091E20284E893E06AD984E893E053D977
:1017600063E080E065D868E872E084E893E0E0D95F
:101770006091D7027091D80284E893E058D984E848
:1017800093E041D91093D6020093D50261E087E23D
:101790000E94BE0264EF71E080E090E00E944E0380
:1017A00060E087E20E94BE0260ED77E080E090E0BA
:1017B0000E944E0360E086E00E94BE0260E086E286
:1017C0000E94BE02809100029091010201969093C6
:1017D0000102809300020E943002F6CBEE0FFF1F41
:1017E000881F8BBF0790F691E02D19945058BB27A6
:1017F000AA270ED04DC13ED130F043D120F031F4B4
:101800009F3F11F41EF433C10EF4E095E7FB29C1AC
:10181000E92F4FD180F3BA17620773078407950742
:1018200018F071F49EF567C10EF4E0950B2EBA2FF7
:10183000A02D0B01B90190010C01CA01A0011124D6
:10184000FF27591B99F0593F50F4503E68F11A1682
:10185000F040A22F232F342F4427585FF3CF469513
:1018600037952795A795F0405395C9F77EF41F1635
:10187000BA0B620B730B840BBAF09150A1F0FF0FFF
:10188000BB1F661F771F881FC2F70EC0BA0F621FEB
:10189000731F841F48F4879577956795B795F795DB
:1018A0009E3F08F0B3CF9395880F08F09927EE0F6D
:1018B0009795879508950CD0EBC0E3D040F0DAD02F
:1018C00030F021F45F3F19F0CCC0511115C1CFC0E9
:1018D000F0D098F39923C9F35523B1F3951B550B19
:1018E000BB27AA2762177307840738F09F5F5F4FF3
:1018F000220F331F441FAA1FA9F333D00E2E3AF034
:10190000E0E830D091505040E695001CCAF729D04D
:10191000FE2F27D0660F771F881FBB1F261737079C
:101920004807AB07B0E809F0BB0B802DBF01FF27CC
:1019300093585F4F2AF09E3F510568F092C0DCC07B
:101940005F3FECF3983EDCF3869577956795B79506
:10195000F7959F5FC9F7880F911D9695879597F921
:101960000895E1E0660F771F881FBB1F621773079A
:101970008407BA0720F0621B730B840BBA0BEE1FAF
:1019800088F7E095089504D06894B111B5C0089522
:1019900098D088F09F5790F0B92F9927B751A0F0B1
:1019A000D1F0660F771F881F991F1AF0BA95C9F7F3
:1019B00012C0B13081F09FD0B1E008959CC0672F74
:1019C000782F8827B85F39F0B93FCCF386957795A3
:1019D0006795B395D9F73EF490958095709561958C
:1019E0007F4F8F4F9F4F0895E89409C097FB3EF4B7
:1019F00090958095709561957F4F8F4F9F4F99235C
:101A0000A9F0F92F96E9BB279395F69587957795D9
:101A10006795B795F111F8CFFAF4BB0F11F460FF99
:101A20001BC06F5F7F4F8F4F9F4F16C0882311F0F1
:101A300096E911C0772321F09EE8872F762F05C005
:101A4000662371F096E8862F70E060E02AF09A95A0
:101A5000660F771F881FDAF7880F9695879597F995
:101A6000089597F99F6780E870E060E008959FEF20
:101A700080EC089500240A94161617061806090625
:101A8000089500240A9412161306140605060895F4
:101A9000092E0394000C11F4882352F0BB0F40F47C
:101AA000BF2B11F460FF04C06F5F7F4F8F4F9F4FBC
:101AB000089557FD9058440F551F59F05F3F71F03E
:101AC0004795880F97FB991F61F09F3F79F08795A5
:101AD0000895121613061406551FF2CF4695F1DF2E
:101AE00008C0161617061806991FF1CF86957105BE
:101AF000610508940895E894BB2766277727CB01F2
:101B000097F9089581E090E0F89457C0052E97FB6F
:101B100016F400940FD057FD05D01ED007FC02D05C
:101B200046F408C050954095309521953F4F4F4F52
:101B30005F4F089590958095709561957F4F8F4F79
:101B40009F4F08952BD0A59F900DB49F900DA49FFB
:101B5000800D911D11240895A1E21A2EAA1BBB1B12
:101B6000FD010DC0AA1FBB1FEE1FFF1FA217B30769
:101B7000E407F50720F0A21BB30BE40BF50B661F7F
:101B8000771F881F991F1A9469F760957095809543
:101B900090959B01AC01BD01CF010895A29FB001BA
:101BA000B39FC001A39F700D811D1124911DB29F91
:0E1BB000700D811D1124911D0895F894FFCF32
:101BBE0001000100000000000000C9014601930170
:101BCE00710185010F0200000000110446010D0A8B
:101BDE0000534D41525420475245454E2D47524FCA
:101BEE00434552590022475245454E2D54454348D0
:101BFE0022004B2E4D555249554E47492026204521
:101C0E002E4F4B45524F004D4F4920554E4956458C
:101C1E005253495459004B414C4553002050524F9A
:101C2E004455435420202000204B414C45532C203A
:101C3E0000776569676874005052494345203D201E
:101C4E002C200042414E414E4153002042414E4114
:101C5E004E41532C2000544F4D41544F45530020BC
:101C6E00544F4D41544F45532C20004F4E494F4E2B
:0C1C7E005300204F4E494F4E532C2000C5
:00000001FF
